:020000040800F2
:10000000F8240020F5010008BD440008B5400008B0
:10001000B9440008C9050008ED8C00080000000084
:10002000000000000000000000000000794C000803
:10003000E506000800000000394C00088D4D00085E
:100040000F0200080F0200080F0200080F0200084C
:100050000F0200080F0200080F0200080F0200083C
:100060000F0200080F0200080F0200080F0200082C
:100070000F0200080F020008850600080F020008A2
:100080000F0200080F0200080F0200080F0200080C
:10009000898B00080F0200080F0200080F020008F9
:1000A0000F0200082D4E00080F0200080F02000882
:1000B0000F0200080F0200080F0200080F020008DC
:1000C0000F0200080F0200080F0200080F020008CC
:1000D0000F020008295500080F0200080F0200084F
:1000E0000F0200080F0200080F02000800F002F8DB
:1000F00000F070F814A696E8000CB244B344DA4558
:1001000001D100F067F8BAE80F000FA696E83000BA
:10011000A5EB040504EB0607AAEB0704A7F101070A
:100120004FEA15154FEA3414A4F10104AC4201D38F
:1001300000F050F813F0010F18BFFB1A43F0010351
:1001400000F001F8DBE71847C4980000E4980000CD
:100150000A444FF0000C10F8013B13F0070408BFED
:1001600010F8014B1D1108BF10F8015B641E05D08B
:1001700010F8016B641E01F8016BF9D113F0080F40
:100180001EBF10F8014BAD1C0C1B09D16D1E58BFD2
:1001900001F801CBFAD505E014F8016B01F8016B09
:1001A0006D1EF9D59142D6D370470000704700000C
:1001B0000023002400250026103A28BF78C1FBD870
:1001C000520728BF30C148BF0B6070471FB51FBD25
:1001D00010B510BD00F06CF81146FFF7F7FF08F0FE
:1001E00097FE00F08AF803B4FFF7F2FF03BC00F0BB
:1001F0008DF800000948804709480047FEE7FEE700
:10020000FEE7FEE7FEE7FEE7FEE7FEE7FEE7FEE7C6
:1002100004480549054A064B70470000294E00086E
:10022000ED000008F8140020F8240020F81C00203D
:10023000F81C00204FF0000200B513469446964685
:10024000203922BFA0E80C50A0E80C50B1F12001E9
:10025000BFF4F7AF090728BFA0E80C5048BF0CC097
:100260005DF804EB890028BF40F8042B08BF7047F5
:1002700048BF20F8022B11F0804F18BF00F8012B67
:10028000704770477047704710B500F009F8006874
:1002900010BD10B5044600F003F8046010BD000066
:1002A000004870478001002000487047800100200E
:1002B0007546FFF7F9FFAE4605006946534620F044
:1002C0000700854618B020B5FFF7A2FFBDE8204023
:1002D0004FF000064FF000074FF000084FF0000B02
:1002E000AC46ACE8C009ACE8C009ACE8C009ACE871
:1002F000C00921F007018D46704710B50446AFF3E1
:1003000000802046BDE81040FFF76DBF014918206E
:10031000ABBEFEE7260002007047000080B582B049
:10032000002000F04BF800F01FF840F60040C4F247
:10033000010001220192114600F01AFF019A40F6D5
:100340000000C4F201000090802100F011FF00982D
:10035000019A102100F00CFF0098019A202100F072
:1003600007FF02B080BD000080B584B040F60000F9
:10037000C4F201000190402102910022039200F09A
:10038000F7FE019802990122009200F0F1FE009A16
:100390000198029900F0ECFE009A0198029900F091
:1003A000E7FE009A0198029900F0E2FE0198029996
:1003B000039A00F0DDFE04B080BD000080B592B06D
:1003C0008DF847009DF8470001461091062800F27D
:1003D000A1801099DFE801F0041A30465C728800B1
:1003E00040F60040C4F201000E90022100220F925C
:1003F00000F0BEFE0E980F9A042100F0B9FE0E9890
:100400000F9A4FF4806100F0B3FE99E040F600408F
:10041000C4F201000D90022100220C9200F0A8FE0F
:100420000C9A0D98042100F0A3FE0D984FF4806102
:10043000012200F09DFE83E040F60040C4F201007E
:100440000A90022100220B9200F092FE0A980421E9
:10045000012200F08DFE0A980B9A4FF4806100F0A3
:1004600087FE6DE040F60040C4F2010008900221D2
:10047000002200F07DFE089804210122099200F07C
:1004800077FE0898099A4FF4806100F071FE57E0FA
:1004900040F60040C4F2010006900221012200F063
:1004A00067FE069804210022079200F061FE06987C
:1004B000079A4FF4806100F05BFE41E040F6004097
:1004C000C4F20100049002210122059200F050FEC6
:1004D00004980421002200F04BFE0498059A4FF482
:1004E000806100F045FE2BE040F60040C4F20100C0
:1004F000039002210122029200F03AFE029A039830
:10050000042100F035FE03984FF48061002200F0D2
:100510002FFE15E040F60040C4F2010000900221D9
:100520000022019200F024FE0098019A042100F0BC
:100530001FFE0098019A4FF4806100F019FEFFE75A
:1005400012B080BD80B586B040F60040C4F2010014
:100550000190012105910022029200F009FE01980C
:10056000029A059900F004FE0198029A059900F09C
:10057000FFFD0198029A059900F0FAFD0198059A8D
:10058000114600F0F5FD029A40F60000C4F20100A9
:1005900003908021049100F0EBFD029A03980499E6
:1005A00000F0E6FD029A0398049900F0E1FD029A3A
:1005B0000398049900F0DCFD03980499059A00F073
:1005C000D7FD06B080BD0000FFE7FEE784B08DF8E0
:1005D0000F000291ADF806209DF80F000146009132
:1005E00023281DD80099DFE801F012131415161BFB
:1005F0001B1B1B1B1B1B1B1B1B1B1B1B1B1B1B1B4B
:100600001B1B1B1B1B1B1B1B1B1B1718191A08E092
:1006100007E006E005E004E003E002E001E000E0BE
:10062000FFE7002004B070470020704780B582B01B
:1006300040F61860C2F20000009040F61421C2F2A9
:1006400000010022019205F051F9009840F2146176
:10065000C2F2000105F03CF9019802B080BD000033
:1006600080B584B003900291039940F61860C2F2FD
:100670000000019005F02CF9019805F0E3F8002046
:1006800004B080BD80B541F2DC00C2F2000000F091
:10069000A3F980BD84B00390029101920093039866
:1006A000C16B026C01209040486000980399096872
:1006B000486003984068102809D1FFE70198039922
:1006C00009688860029803990968C86008E0029880
:1006D000039909688860019803990968C860FFE771
:1006E00004B070477047000081B0EFF3108072B61D
:1006F0000090FFE7FEE7000080B584B0FFF722FF1F
:10070000FFE740F60000C4F20100082100F018FDE8
:10071000012804D1FFE7012000F060FBF1E7012090
:1007200008F064FB40F2E010C2F2000004F0A6FA08
:1007300000208DF80F00FFE79DF80F00072826DC4A
:10074000FFE79DF80F1040F2E010C2F2000030F910
:10075000110008F083FE4FF0605108F0FFFE002109
:10076000C4F2201108F0FAFE0290029803F0E2FCB5
:100770009DF80F2041F28841C2F2000141F82200A9
:10078000FFE79DF80F0001308DF80F00D4E741F22C
:100790008840C2F2000041F2A841C2F200010822E2
:1007A00008F06AFB00208DF80700FFE79DF80700BE
:1007B000072815DCFFE79DF8072041F2A840C2F2A8
:1007C000000050F8220041F28841C2F2000141F8D5
:1007D0002200FFE79DF8070001308DF80700E5E7EC
:1007E00004B080BD80B584B04FF2E870C1F6FF70F0
:1007F000006803904FF2EC70C1F6FF700068029041
:100800004FF2F070C1F6FF700068019001990398F3
:1008100008440390039888B1FFE7039840F2581109
:10082000C2F2000100910231082203F045FC009958
:1008300002981231042203F03FFCFFE704B080BDB0
:1008400083B0019000208DF80300019890F82100FA
:1008500002280DD0FFE7019904208863FFE7019982
:10086000002081F82000FFE701208DF80B0021E037
:1008700001980168086820F00E000860019801687E
:10088000086820F0010008600198C16B026C01202B
:1008900090404860FFE70199012081F82100FFE7BF
:1008A0000199002081F82000FFE79DF803008DF8F2
:1008B0000B00FFE79DF80B0003B0704780B588B0D0
:1008C000079000208DF81B00079890F8210002285F
:1008D00007D0FFE707990420886301208DF81B00EB
:1008E00076E007980168086820F00E000860079815
:1008F0000168086820F00100086007980068082176
:10090000C4F20201884203D1FFE70120059047E0CD
:10091000079800681C21C4F20201884203D1FFE756
:100920001020049039E0079800683021C4F20201D9
:10093000884204D1FFE74FF4807003902AE00798C3
:1009400000684421C4F20201884204D1FFE74FF459
:10095000805002901BE0079800685821C4F2020101
:10096000884204D1FFE74FF4803001900CE00798F3
:1009700001686C22C4F202024FF08070914208BFFD
:100980004FF480100190FFE701980290FFE7029872
:100990000390FFE703980490FFE704980590FFE7B2
:1009A00005980421C4F2020108600799012081F82A
:1009B0002100FFE70799002081F82000FFE7079852
:1009C000406B20B1FFE70798416B8847FFE7FFE7DF
:1009D0009DF81B0008B080BD80B58EB00D900D98BD
:1009E000C06B00680C900D98006800680B900C9824
:1009F0000D99096CC8404007002875D5FFE79DF8A0
:100A00002C00400700286FD5FFE70D9800680068AC
:100A10008006002807D4FFE70D980168086820F0D9
:100A200004000860FFE70D9800680821C4F2020185
:100A3000884203D1FFE704200A9047E00D98006840
:100A40001C21C4F20201884203D1FFE74020099033
:100A500039E00D9800683021C4F20201884204D1C7
:100A6000FFE74FF4806008902AE00D980068442169
:100A7000C4F20201884204D1FFE74FF4804007909E
:100A80001BE00D9800685821C4F20201884204D18D
:100A9000FFE74FF4802006900CE00D9801686C226F
:100AA000C4F202024FF08060914208BF4FF4800010
:100AB0000690FFE706980790FFE707980890FFE782
:100AC00008980990FFE709980A90FFE70A9804211F
:100AD000C4F2020108600D98C06A20B1FFE70D98CA
:100AE000C16A8847FFE7B8E00C980D99096CC840C7
:100AF0008007002840F18080FFE79DF82C008007E8
:100B0000002879D5FFE70D98006800688006002866
:100B10000BD4FFE70D980168086820F00A00086010
:100B20000D99012081F82100FFE70D980068082148
:100B3000C4F20201884203D1FFE70220059047E09A
:100B40000D9800681C21C4F20201884203D1FFE71E
:100B50002020049039E00D9800683021C4F2020191
:100B6000884204D1FFE74FF4007003902AE00D980B
:100B700000684421C4F20201884204D1FFE74FF427
:100B8000005002901BE00D9800685821C4F2020149
:100B9000884204D1FFE74FF4003001900CE00D983B
:100BA00001686C22C4F202024FF00070914208BF4B
:100BB0004FF400100190FFE701980290FFE70298C0
:100BC0000390FFE703980490FFE704980590FFE780
:100BD00005980421C4F202010860FFE70D99002086
:100BE00081F82000FFE70D98806A20B1FFE70D989B
:100BF000816A8847FFE72FE00C980D99096CC8407F
:100C00000007002827D5FFE79DF82C0000070028E3
:100C100021D5FFE70D980168086820F00E000860F4
:100C20000D98C26B016C012000FA01F151600D9921
:100C300088630D9981F82100FFE70D99002081F864
:100C40002000FFE70D98006B20B1FFE70D98016BC6
:100C50008847FFE7FFE7FFE7FFE70EB080BD000032
:100C600083B0019000200090019820B9FFE7012097
:100C70008DF80B0047E0019908684FF6F872CBF643
:100C8000FD7210444CF6CD42CCF6CC42A0FB0202E1
:100C90006FF0030000EA9200086401990020C4F29A
:100CA0000200C8630199022081F8210001980068C0
:100CB00000680090009843F6F07188430090019915
:100CC0004868D1F808C0CB680A6940EA0C001843AC
:100CD00010434A6910438A691043C9690143009867
:100CE0000843009000980199096808600199002064
:100CF0008863019A012182F82110019981F820006E
:100D00008DF80B00FFE79DF80B0003B07047000063
:100D100080B586B0049003910292019300208DF873
:100D20000300FFE7049890F82000012804D1FFE7B2
:100D300002208DF817004CE00499012081F8200072
:100D4000FFE7FFE7049890F82100012832D1FFE780
:100D50000499022081F821000499002088630498F6
:100D60000168086820F00100086004980399029A5D
:100D7000019BFFF78FFC0498C06A38B1FFE7049825
:100D80000168086840F00E0008600CE004980168F3
:100D9000086820F00400086004980168086840F0C2
:100DA0000A000860FFE704980168086840F0010045
:100DB000086009E0FFE70499002081F82000FFE7C0
:100DC00002208DF80300FFE79DF803008DF817005F
:100DD000FFE79DF8170006B080BD000080B584B025
:100DE000039000F0DDF90290039801900198013022
:100DF00048B1FFE740F27410C2F200000178019898
:100E000008440190FFE7FFE700F0CAF90299401A91
:100E10000199884201D2FFE7F6E704B080BD0000E7
:100E200090B00F900E9100200D900990FFE70E9862
:100E300000680D99C840002800F07F81FFE70D99F8
:100E4000012088400C900E9800680C9908400B9087
:100E50000B980C99884240F06C81FFE70E9840682F
:100E60000590002851D0FFE7059801283AD0FFE708
:100E7000059802283FD0FFE7059803285FD0FFE7D9
:100E80000598112832D0FFE70598122838D0FFE7DF
:100E900005980021C1F21101884236D0FFE705987C
:100EA0000021C1F2120188422FD0FFE705980021EE
:100EB000C1F22101884228D0FFE705980021C1F244
:100EC0002201884221D0FFE705980021C1F23101BB
:100ED00088421AD0FFE705980021C1F2320188420A
:100EE00013D02FE00E98C06809902CE00E98C068CF
:100EF0000430099027E00E98C0680830099022E07D
:100F00000E98C0680C3009901DE00E98806818B9E2
:100F1000FFE70420099011E00E988068012806D1AF
:100F2000FFE7082009900C980F99086105E0082058
:100F300009900C980F994861FFE7FFE703E0002054
:100F4000099000E0FFE70B98FF2803D8FFE70F9810
:100F5000049003E00F9804300490FFE70498089091
:100F60000B98FF2804D8FFE70D988000039006E057
:100F70000D996FF01F0000EB81000390FFE70398CD
:100F8000079008980068079A0F21914088430999B3
:100F900091400843089908600E98C079C00600285F
:100FA00040F1C680FFE7FFE741F21800C4F20200FB
:100FB000016841F001010160006800F00100069045
:100FC0000698FFE70D9820F003000821C4F2010104
:100FD00040580A900D9800F0030081000F2000FA9D
:100FE00001F10A9888430A900F9840F60001C4F274
:100FF0000101884203D1FFE70020029026E00F980C
:1010000040F60041C4F20101884203D1FFE701200C
:10101000019018E00F9841F20001C4F201018842EA
:1010200003D1FFE7022000900AE00F9941F200424D
:10103000C4F201020420914208BF03200090FFE7A0
:1010400000980190FFE701980290FFE702980D9940
:1010500001F00301890000FA01F10A9808430A909F
:101060000A980D9921F003010822C4F20102885068
:101070000E988079C006002809D5FFE70B9A40F248
:101080000841C4F2010108681043086008E00B9AA7
:1010900040F20841C4F20101086890430860FFE78C
:1010A0000E9880798006002809D5FFE70B9A40F258
:1010B0000C41C4F2010108681043086008E00B9A73
:1010C00040F20C41C4F20101086890430860FFE758
:1010D0000E9880798007002809D5FFE70B9A40F227
:1010E0000441C4F2010108681043086008E00B9A4B
:1010F00040F20441C4F20101086890430860FFE730
:101100000E988079C00748B1FFE70B9A40F2004182
:10111000C4F2010108681043086008E00B9A40F22D
:101120000041C4F20101086890430860FFE7FFE74F
:10113000FFE70D9801300D9079E610B07047000080
:1011400082B00190ADF8021001988068BDF80210DD
:10115000084204D0FFE701208DF8010003E00020E1
:101160008DF80100FFE79DF8010002B07047000014
:1011700082B00190ADF802108DF801209DF80100B9
:1011800028B1FFE7BDF802000199086105E0BDF84C
:101190000200000401990861FFE702B070470000F7
:1011A00041F2F040C2F200000068704740F2741053
:1011B000C2F20000027841F2F041C2F20001086878
:1011C000104408607047000080B542F20001C4F28C
:1011D0000201086840F010000860032000F096F853
:1011E0000F2000F005F800F03BF8002080BD000063
:1011F00080B582B0009040F21C00C2F2000000688E
:1012000040F27411C2F200010A784FF47A71B1FB16
:10121000F2F1B0FBF1F002F053F820B1FFE701204A
:101220008DF8070018E000980F280DD8FFE7009907
:101230004FF0FF30002200F04FF8009840F2781194
:10124000C2F20001086003E001208DF8070003E00E
:1012500000208DF80700FFE79DF8070002B080BD71
:1012600083B0FFE741F21800C4F20200016841F0C8
:1012700001010160006800F0010002900298FFE7A0
:10128000FFE741F21C00C4F20200016841F0805106
:101290000160006800F0805001900198FFE7FFE7CF
:1012A0000421C4F2010108680090009820F0E06079
:1012B0000090009840F00070009000980860FFE7F0
:1012C00003B0704780B582B08DF807009DF9070024
:1012D00007F00EFD02B080BD80B586B08DF8170016
:1012E000049103920020029007F01AFD02909DF9EC
:1012F0001700019002980499039A03F0E1F801465F
:10130000019807F015FD06B080BD000080B582B0E1
:101310000190019807F02EFD02B080BD84B00390CB
:10132000ADF80A10ADF808200193BDF80A000006D8
:1013300000280CD5FFE70398BDF80A1001F007015B
:1013400001EB810100EBC100103000900AE003982E
:10135000BDF80A1001EB810100EBC10000F5A87097
:101360000090FFE7BDF8080038B9FFE700990020BA
:10137000087301980099C8800AE000990120087359
:10138000019800990881BDF8060000994881FFE79F
:10139000002004B07047000082B001908DF8031067
:1013A0009DF80300012801D1FFE700E0FFE702B04C
:1013B0007047000080B582B001908DF80310019A4B
:1013C000D2F8D4029DF8031001EB810302EBC302B3
:1013D000526A04F08FFF02B080BD000080B582B079
:1013E00001908DF80310019AD2F8D4029DF80310F1
:1013F00001EB810302EBC302D2F8642105F02CF863
:1014000002B080BD80B584B002908DF807109DF8C1
:101410000700000600280FD5FFE702989DF8071087
:1014200001F0070101EB810100EBC10010300090D9
:101430000099012048700FE002989DF8071001F014
:10144000070101EB810100EBC10000F5A8700090DD
:10145000009900204870FFE79DF8070000F00700A2
:1014600000990870FFE7029890F89002012804D1D3
:10147000FFE702208DF80F0014E00299012081F8A7
:101480009002FFE7FFE702980068009906F088F9EC
:10149000FFE70299002081F89002FFE700208DF815
:1014A0000F00FFE79DF80F0004B080BD80B584B049
:1014B00002908DF807109DF8070000F00F000299C8
:1014C0000979884204D9FFE701208DF80F004DE02B
:1014D0009DF80700000600280FD5FFE702989DF849
:1014E000071001F0070101EB810100EBC100103092
:1014F00000900099012048700FE002989DF80710B5
:1015000001F0070101EB810100EBC10000F5A870BB
:101510000090009900204870FFE700990020887033
:101520009DF8070000F0070000990870FFE7029897
:1015300090F89002012804D1FFE702208DF80F00F7
:1015400014E00299012081F89002FFE7FFE702987A
:101550000068009906F014FBFFE70299002081F86B
:101560009002FFE700208DF80F00FFE79DF80F00C5
:1015700004B080BD80B586B005900491ADF80E2012
:10158000BDF80E004004002877D5FFE705980068F5
:10159000B0F850000499097800EBC1010598006883
:1015A00000EB4100B0F804046FF39F20ADF80C008D
:1015B00004988069BDF80C10884207D3FFE7BDF896
:1015C0000C2004998869801A886103E0049900203E
:1015D0008861FFE704988069F8B9FFE7FFE705989D
:1015E00000680499097830F821004BF68F710840A3
:1015F000ADF80A00BDF80A0080F40050ADF80A000A
:10160000BDF80A0048F28001084305990968049A68
:10161000127821F82200FFE7FFE7BDF80E00400630
:1016200000281BD5FFE7FFE7FFE70598006804994E
:10163000097830F8210048F68F710840ADF80800AD
:10164000BDF8080048F2C001084305990968049AEA
:10165000127821F82200FFE7FFE7FFE7BDF80C0052
:1016600050B1FFE705980068049A51691289BDF8E6
:101670000C3007F09BFAFFE776E005980068B0F8B9
:1016800050000499097800EBC1010598006800EB4F
:101690004100B0F80C046FF39F20ADF80C000498E3
:1016A0008069BDF80C10884207D3FFE7BDF80C2015
:1016B00004998869801A886103E004990020886190
:1016C000FFE704988069F8B9FFE7FFE7059800682D
:1016D0000499097830F821004BF68F710840ADF875
:1016E0000600BDF8060080F40050ADF80600BDF815
:1016F000060048F28001084305990968049A1278A7
:1017000021F82200FFE7FFE7BDF80E0040060028A1
:101710001BD4FFE7FFE7FFE7059800680499097805
:1017200030F8210048F68F710840ADF80400BDF88C
:10173000040048F2C001084305990968049A127828
:1017400021F82200FFE7FFE7FFE7BDF80C0050B1EA
:10175000FFE705980068049A51695289BDF80C307A
:1017600007F024FAFFE7FFE7BDF80C0006B080BDE4
:1017700080B5A6B025902491ADF88E20BDF88E00DE
:101780004006002840F1BB81FFE725980068B0F8CB
:1017900050002499097800EBC1012598006800EBFE
:1017A0004100B0F804046FF39F20ADF88600249840
:1017B0008069BDF88610884207D9FFE7BDF886200A
:1017C00024998869801A886103E02499002088613F
:1017D000FFE724988069002840F0B080FFE7FFE72A
:1017E0002498407808BBFFE7FFE725980068209021
:1017F00025980068B0F85010209808442090209850
:101800002499097800EB011000F204401F90FFE7D3
:101810001F9908886FF39F2008801F99088840F45B
:1018200000400880FFE7FFE71DE02498407801288A
:1018300018D1FFE7FFE7259800681D9025980068FC
:10184000B0F850101D9808441D901D9824990978EF
:1018500000EB011000F204401C901C99002008804D
:10186000FFE7FFE7FFE7FFE7FFE7259800681B902A
:101870002498407808BBFFE7FFE725980068199097
:1018800025980068B0F850101998084419901998D4
:101890002499097800EB011000F20C401890FFE742
:1018A000189908886FF39F2008801899088840F4D9
:1018B00000400880FFE7FFE718E0249840780128FF
:1018C00013D1FFE725980068B0F850101B98084422
:1018D0001B901B982499097800EB011000F20C4032
:1018E0001A901A9900200880FFE7FFE7FFE7259884
:1018F00024990978FFF75EFDBDF88E0040040028AA
:101900001BD5FFE7FFE7FFE72598006824990978D2
:1019100030F8210048F68F710840ADF85A00BDF844
:101920005A004CF28001084325990968249A1278DC
:1019300021F82200FFE7FFE7FFE7DFE0BDF88E00B8
:10194000400400281BD5FFE7FFE7FFE72598006864
:101950002499097830F8210048F68F710840ADF8D5
:101960005800BDF858004CF28001084325990968D9
:10197000249A127821F82200FFE7FFE7FFE7249876
:1019800090F82400012840F0B880FFE7BDF88620D9
:101990002499486910444861BDF886202499C86993
:1019A0001044C86124980169006A884209D3FFE79E
:1019B000249800692290229A2499086A801A086261
:1019C00016E02498006A40B9FFE7BDF8860022902F
:1019D0002499002081F8240009E02499002081F84E
:1019E00024002499096A229124990862FFE7FFE7FD
:1019F000FFE724984078002856D1FFE7FFE72598B5
:101A00000068159025980068B0F8501015980844A3
:101A1000159015982499097800EB011000F2044004
:101A20001490FFE7149908886FF39F20088022988C
:101A30003F2817D3FFE7FFE72298400913909DF84E
:101A40008800C00620B9FFE7139801381390FFE71C
:101A5000139A1499088840EA822040F400400880D4
:101A6000FFE71EE0229830B9FFE71499088840F498
:101A70000040088014E0FFE72298400813909DF88A
:101A80008800C00720B1FFE7139801301390FFE7EB
:101A9000139A1499088840EA82200880FFE7FFE73C
:101AA000FFE7FFE7FFE71DE024984078012818D101
:101AB000FFE7FFE725980068129025980068B0F8C6
:101AC000501012980844129012982499097800EB4B
:101AD000011000F204401190229811990880FFE74C
:101AE000FFE7FFE7FFE725980068249A516912890C
:101AF000BDF8883007F0B8F8FFE7FFE7B7E12598B1
:101B00000068B0F850002499097800EBC1012598CD
:101B1000006800EB4100B0F80C046FF39F20ADF8B3
:101B2000860024988069BDF88610884207D3FFE7B5
:101B3000BDF8862024998869801A886103E0249979
:101B400000208861FFE724988069002840F0B08079
:101B5000FFE7FFE72498407808BBFFE7FFE72598F9
:101B60000068109025980068B0F85010109808444C
:101B7000109010982499097800EB011000F20440AD
:101B80000F90FFE70F9908886FF39F2008800F9947
:101B9000088840F400400880FFE7FFE71DE0249834
:101BA0004078012818D1FFE7FFE7259800680D90DD
:101BB00025980068B0F850100D9808440D900D98C5
:101BC0002499097800EB011000F204400C900C9964
:101BD00000200880FFE7FFE7FFE7FFE7FFE7259822
:101BE00000680B902498407808BBFFE7FFE7259832
:101BF0000068099025980068B0F8501009980844CA
:101C0000099009982499097800EB011000F20C4022
:101C10000890FFE7089908886FF39F2008800899CB
:101C2000088840F400400880FFE7FFE718E02498A8
:101C30004078012813D1FFE725980068B0F85010CC
:101C40000B9808440B900B982499097800EB01102D
:101C500000F20C400A900A9900200880FFE7FFE795
:101C6000FFE7259824990978FFF7A4FBBDF88E00BB
:101C7000400400281BD4FFE7FFE7FFE72598006832
:101C80002499097830F8210048F68F710840ADF8A2
:101C90001A00BDF81A004CF2800108432599096822
:101CA000249A127821F82200FFE7FFE7FFE7DDE042
:101CB000BDF88E00400400281BD4FFE7FFE7FFE7D4
:101CC000259800682499097830F8210048F68F712A
:101CD0000840ADF81800BDF818004CF28001084328
:101CE00025990968249A127821F82200FFE7FFE776
:101CF000FFE7249890F82400012840F0B680FFE721
:101D0000BDF886202499486910444861BDF88620B2
:101D10002499C8691044C86124980169006A8842FE
:101D200009D3FFE7249800692290229A2499086A2F
:101D3000801A086216E02498006A40B9FFE7BDF8EF
:101D4000860022902499002081F8240009E024983C
:101D5000006A2290249900200862249981F82400C6
:101D6000FFE7FFE7FFE72598006805902498407893
:101D7000002856D1FFE7FFE72598006803902598D3
:101D80000068B0F850100398084403900398249911
:101D9000097800EB011000F20C400290FFE7029975
:101DA00008886FF39F20088022983F2817D3FFE709
:101DB000FFE72298400901909DF88800C00620B9ED
:101DC000FFE7019801380190FFE7019A029908881E
:101DD00040EA822040F400400880FFE71EE022989D
:101DE00030B9FFE70299088840F40040088014E009
:101DF000FFE72298400801909DF88800C00720B1B5
:101E0000FFE7019801300190FFE7019A02990888E5
:101E100040EA82200880FFE7FFE7FFE7FFE7FFE7F0
:101E200018E024984078012813D1FFE7259800682E
:101E3000B0F8501005980844059005982499097841
:101E400000EB011000F20C400490229804990880E5
:101E5000FFE7FFE7FFE725980068249A5169528958
:101E6000BDF8883006F000FFFFE7FFE7FFE7FFE778
:101E7000259800682499097830F8210048F6BF7148
:101E80000840ADF80200BDF8020080F01000ADF887
:101E90000200BDF8020080F02000ADF80200BDF89D
:101EA000020048F28001084325990968249A1278B3
:101EB00021F82200FFE7002026B080BD82B001900B
:101EC0008DF8031001989DF8031001F0070101EB54
:101ED000810100EBC100D0F86C0102B07047000036
:101EE00080B586B004908DF80F10ADF80C208DF8F9
:101EF0000B3000208DF80A009DF80F000006002826
:101F00000FD5FFE704989DF80F1001F0070101EBD2
:101F1000810100EBC100103001900199012048704F
:101F20000FE004989DF80F1001F0070101EB81010B
:101F300000EBC10000F5A8700190019900204870E5
:101F4000FFE79DF80F0000F0070001990870BDF849
:101F50000C00019908619DF80B000199C8709DF86B
:101F60000B00022804D1FFE7019900200871FFE768
:101F7000FFE7049890F89002012804D1FFE70220BF
:101F80008DF8170015E00499012081F89002FFE711
:101F9000FFE704980068019905F0A6F8FFE70499A7
:101FA000002081F89002FFE79DF80A008DF81700E5
:101FB000FFE79DF8170006B080BD000080B586B031
:101FC00005908DF813100392029305989DF8131055
:101FD00001F0070101EB810100EBC10000F5A870E1
:101FE00001900398019948610298019988610199CB
:101FF00000200090C861019948709DF8130000F01E
:1020000007000199087005980068019905F0A0FE85
:10201000009806B080BD000080B584B002908DF8B5
:1020200007109DF8070000F007000299097988421F
:1020300004D9FFE701208DF80F0057E09DF8070055
:10204000000600280FD5FFE702989DF8071001F061
:10205000070101EB810100EBC100103000900099F5
:10206000012048700DE002989DF8071001EB8101F6
:1020700000EBC10000F5A8700090009900204870A6
:10208000FFE70099012088709DF8070000F0070025
:1020900000990870FFE7029890F89002012804D197
:1020A000FFE702208DF80F0020E00299012081F85F
:1020B0009002FFE7FFE702980068009905F004FE30
:1020C0009DF80700400738B9FFE70299086801F555
:1020D000267105F04FFDFFE7FFE70299002081F828
:1020E0009002FFE700208DF80F00FFE79DF80F003A
:1020F00004B080BD80B586B005908DF813100392B2
:10210000029305989DF8131001F0070101EB81017E
:1021100000EBC100103001900398019948610298CA
:10212000019988610199012081F824000299019A9E
:102130001162019A00210091D161019948709DF8C6
:10214000130000F0070001990870059800680199D4
:1021500005F0FEFD009806B080BD000080B588B097
:1021600007900798006806F017FD06909DF8190083
:102170000006002804D5FFE7079802F0D7F9EDE044
:102180009DF819004007002810D5FFE7079801685F
:10219000B1F8440020F48060A1F84400079800F0F2
:1021A00009FA0798002100F035FAD7E09DF81900E8
:1021B0004006002809D5FFE707980168B1F84400F8
:1021C00020F48040A1F84400C8E09DF81900800682
:1021D000002809D5FFE707980168B1F8440020F40A
:1021E0000050A1F84400B9E09DF81900C00600288D
:1021F0001CD5FFE707980168B1F8400020F0040003
:10220000A1F8400007980168B1F8400020F00800EC
:10221000A1F84000079800F0E9F907980168B1F8C3
:10222000440020F48050A1F8440097E09DF8190084
:102230000007002872D5FFE700208DF80700FFE7B0
:102240009DF80700072812D8FFE7079800689DF857
:10225000071030F821009DF8072002A921F812008C
:10226000FFE79DF8070001308DF80700E8E70798C1
:102270000168B1F8400040F00100A1F84000079863
:102280000168B1F8400020F00100A1F84000FFE72C
:1022900007980068B0F844004005002801D4FFE723
:1022A000F6E707980168B1F8440020F48060A1F8CF
:1022B000440000208DF80700FFE79DF8070007287D
:1022C00010D8FFE79DF8072002A830F81200079900
:1022D000096821F82200FFE79DF8070001308DF81A
:1022E0000700EAE707980168B1F8400040F00800ED
:1022F000A1F8400007980168B1F8440020F400609C
:10230000A1F8440007980168B1F8400040F00400CB
:10231000A1F84000079800F0E5F91FE09DF81900CA
:10232000800700280CD5FFE707980168B1F8440042
:1023300020F40070A1F84400079800F061F90DE066
:102340009DF81900C00748B1FFE707980168B1F888
:10235000440020F48070A1F84400FFE708B080BD7D
:1023600080B58AB00890089820B9FFE701208DF861
:102370002700F3E0089890F8910240B9FFE7089928
:10238000002081F89002089800F0ECF8FFE7089927
:10239000032081F89102089900204871089800688C
:1023A00005F0D8FB089A1068117B8DF81810516859
:1023B0009268059204910499059A069B05F0E0F94C
:1023C00040B1FFE70899022081F8910201208DF8C1
:1023D0002700C3E008980068002106F02DFC40B1FA
:1023E000FFE70899022081F8910201208DF827006B
:1023F000B4E000208DF81F00FFE79DF81F0008994A
:102400000979884239DAFFE708989DF81F1001EB37
:10241000810100EBC101012048749DF81F0008995B
:1024200000EB800201EBC201087408989DF81F10B0
:1024300001EB810100EBC1010020C87408999DF8EF
:102440001F2002EB820201EBC201086208999DF88D
:102450001F2002EB820201EBC201486208999DF83D
:102460001F2002EB820201EBC2018862FFE79DF8A8
:102470001F0001308DF81F00BFE700208DF81F00FE
:10248000FFE79DF81F000899097988423EDAFFE7C7
:1024900008989DF81F1001EB810100EBC10100209D
:1024A00081F851019DF81F10089A01EB810302EB9E
:1024B000C30282F8501108999DF81F2002EB820296
:1024C00001EBC20181F8530108999DF81F2002EB2E
:1024D000820201EBC201C1F8600108999DF81F203A
:1024E00002EB820201EBC201C1F8640108999DF878
:1024F0001F2002EB820201EBC201C1F86801FFE775
:102500009DF81F0001308DF81F00BAE7089A106887
:10251000117B8DF80C10516892680292019101991B
:10252000029A039B05F0F8FA40B1FFE708990220F0
:1025300081F8910201208DF827000FE00899002012
:10254000009048730899012081F89102089800686A
:1025500005F0DCFA00988DF82700FFE79DF82700CA
:102560000AB080BD80B584B003900398006845F63A
:102570000041C4F20001884219D1FFE7FFE741F2B0
:102580001C00C4F20200016841F40001016000680F
:1025900000F4000002900298FFE71420019000224E
:1025A0001146FEF799FE0198FEF78CFEFFE704B096
:1025B00080BD000080B582B0019001208DF803003D
:1025C00001988079022803D0FFE7FEF78DF8FFE736
:1025D0000198D0F8D4029DF8031004F0FBF801989C
:1025E000D0F8D40204F090F802B080BD80B582B07B
:1025F00001900198D0F8D40204F0C0F802B080BD78
:1026000080B582B001900198D0F8D40204F0C8F8E7
:1026100002B080BD80B584B002908DF80710FFE74E
:10262000029890F89002012804D1FFE702208DF86B
:102630000F0019E00299012081F89002FFE7FFE7FF
:102640009DF8070002994873029800689DF80710EA
:1026500006F0FAFAFFE70299002081F89002FFE7FE
:1026600000208DF80F00FFE79DF80F0004B080BD3B
:1026700080B582B001900199D1F8D40201F526719C
:1026800004F0D2F802B080BD80B582B00090FFE7C0
:10269000009890F89002012804D1FFE702208DF8FD
:1026A00007001BE00099012081F89002FFE7FFE797
:1026B0000098006806F058FA00980121FEF76CFEB9
:1026C0000098006805F01CFAFFE70099002081F8E7
:1026D0009002FFE700208DF80700FFE79DF8070054
:1026E00002B080BD80B582B001900198D0F8D402CC
:1026F00004F014F90198807A48B1FFE74EF61051C2
:10270000CEF20001086840F006000860FFE702B062
:1027100080BD000080B586B0049000200390029038
:1027200004980078C007002800F0AC80FFE7002084
:102730008DF8070041F21C00C4F202000068C000DE
:10274000002813D4FFE7FFE741F21C00C4F20200A7
:10275000016841F080510160006800F080500090F5
:102760000098FFE701208DF80700FFE747F200001F
:10277000C4F200000068C005002822D4FFE747F239
:102780000001C4F20001086840F480700860FEF7A0
:1027900007FD0390FFE747F20000C4F20000006865
:1027A000C00500280CD4FFE7FEF7FAFC0399401A95
:1027B000652804D3FFE703208DF817008AE0EAE7D5
:1027C000FFE741F22000C4F20200006800F440700C
:1027D00002900298E0B3FFE702980499496801F477
:1027E0004071884234D0FFE741F22001C4F2020177
:1027F000086820F44070029040F24042C4F2422245
:102800000120106000201060029808609DF8080008
:10281000C007E0B1FFE7FEF7C3FC0390FFE741F21A
:102820002000C4F202000068800700280ED4FFE7F1
:10283000FEF7B6FC0399401A41F28931884204D36D
:10284000FFE703208DF8170044E0E8E7FFE7FFE724
:1028500041F22001C4F20201086820F44070049A99
:102860005268104308609DF80700012809D1FFE76E
:1028700041F21C01C4F20201086820F08050086097
:10288000FFE7FFE704980078800700280CD5FFE7F2
:1028900041F20401C4F20201086820F44040049AA5
:1028A000926810430860FFE704980078C00600288B
:1028B0000CD5FFE741F20401C4F20201086820F4DC
:1028C0008000049AD26810430860FFE700208DF86A
:1028D0001700FFE79DF8170006B080BD80B584B0F3
:1028E00002900191029820B9FFE701208DF80F00B6
:1028F0001BE1019842F20001C4F20201096801F0F3
:102900000701884216D9FFE742F20000C4F2020034
:10291000016821F00701019A11430160006800F08D
:1029200007000199884204D0FFE701208DF80F00CD
:10293000FBE0FFE702980078800700282AD5FFE730
:10294000029800784007002809D5FFE741F204010A
:10295000C4F20201086840F4E0600860FFE70298F2
:1029600000780007002809D5FFE741F20401C4F20E
:102970000201086840F460500860FFE741F204017A
:10298000C4F20201086820F0F000029A9268104335
:102990000860FFE702980078C007002860D0FFE7D2
:1029A0000298406801280ED1FFE741F20000C4F20E
:1029B000020000688003002804D4FFE701208DF89E
:1029C0000F00B2E021E00298406802280ED1FFE734
:1029D00041F20000C4F2020000688001002804D423
:1029E000FFE701208DF80F009FE00DE041F20000AD
:1029F000C4F2020000688007002804D4FFE7012029
:102A00008DF80F0091E0FFE7FFE741F20401C4F207
:102A10000201086820F00300029A5268104308601F
:102A2000FEF7BEFB0090FFE741F20400C4F2020093
:102A3000006800F00C0002994968B0EB810F0ED0DD
:102A4000FFE7FEF7ADFB0099401A41F28931884259
:102A500004D3FFE703208DF80F0066E0E4E7FFE70B
:102A6000019842F20001C4F20201096801F0070175
:102A7000884216D2FFE742F20000C4F20200016869
:102A800021F00701019A11430160006800F007007E
:102A90000199884204D0FFE701208DF80F0044E03F
:102AA000FFE702980078400700280CD5FFE741F2C5
:102AB0000401C4F20201086820F4E060029AD268BE
:102AC00010430860FFE702980078000700280DD542
:102AD000FFE741F20401C4F20201086820F46050EB
:102AE000029A126940EAC2000860FFE700F04CF861
:102AF00041F20401C4F202010968C9B20A0949F6A7
:102B00006411C0F60001895CC84040F21C01C2F2A9
:102B10000001086040F27810C2F200000068FEF781
:102B200067FB00208DF80F00FFE79DF80F0004B051
:102B300080BD000040F21C00C2F200000068704737
:102B400080B5FFF7F7FF41F20401C4F20201096802
:102B5000C1F3022249F67411C0F60001895CC84035
:102B600080BD000080B5FFF7E5FF41F20401C4F22B
:102B700002010968C1F3C22249F67411C0F60001CE
:102B8000895CC84080BD000086B00020059004909C
:102B900003900290019041F20400C4F20200006828
:102BA0000590059800F00C000146009100283FD0E8
:102BB000FFE70098042804D0FFE70098082806D013
:102BC00037E042F20040C0F2F400019037E005988F
:102BD000C0F3834149F67C10C0F60000405C0290CF
:102BE0009DF81600C007C0B1FFE741F20400C4F22F
:102BF00002000068C0F3404149F68C10C0F60000A6
:102C0000405C0490029842F20041C0F2F401484353
:102C10000499B0FBF1F0039007E0029840F6001130
:102C2000C0F23D0148430390FFE70398019006E09E
:102C3000FFE741F20020C0F27A000190FFE701981F
:102C400006B0704780B586B00490049820B9FFE7BD
:102C500001208DF817002EE304980078C0070028A3
:102C600000F0AE80FFE741F20400C4F20200006809
:102C700000F00C00042813D0FFE741F20400C4F276
:102C80000200006800F00C0008281BD1FFE741F2A9
:102C90000400C4F202000068C003002812D5FFE758
:102CA00041F20000C4F2020000688003002808D549
:102CB000FFE70498406820B9FFE701208DF817006E
:102CC000F9E27CE0FFE704984068B0F5803F09D165
:102CD000FFE741F20001C4F20201086840F48030CD
:102CE000086032E00498406868B9FFE741F20001EB
:102CF000C4F20201086820F480300860086820F4FB
:102D00008020086020E004984068B0F5A02F0DD125
:102D1000FFE741F20001C4F20201086840F480209C
:102D20000860086840F4803008600CE041F200015F
:102D3000C4F20201086820F480300860086820F4BA
:102D400080200860FFE7FFE7FFE7FFE7049840689F
:102D5000D0B1FFE7FEF724FA0390FFE741F200004D
:102D6000C4F202000068800300280CD4FFE7FEF7DD
:102D700017FA0399401A652804D3FFE703208DF85A
:102D8000170098E2EAE719E0FEF70AFA0390FFE776
:102D900041F20000C4F202000068800300280CD554
:102DA000FFE7FEF7FDF90399401A652804D3FFE712
:102DB00003208DF817007EE2EAE7FFE7FFE7FFE771
:102DC000049800788007002840F18D80FFE741F2E9
:102DD0000400C4F20200006810F00C0F13D0FFE7EB
:102DE00041F20400C4F20200006800F00C00082860
:102DF00029D1FFE741F20400C4F202000068C003D9
:102E0000002820D4FFE741F20000C4F2020000686D
:102E10008007002809D5FFE704980069012804D03D
:102E2000FFE701208DF8170045E241F20001C4F2EE
:102E30000201086820F0F800049A526940EAC200D2
:102E40000860FFE74EE00498006958B3FFE70021EF
:102E5000C4F2422101200860FEF7A2F90390FFE7C7
:102E600041F20000C4F202000068800700280CD480
:102E7000FFE7FEF795F90399401A032804D3FFE70B
:102E800003208DF8170016E2EAE741F20001C4F2D0
:102E90000201086820F0F800049A526940EAC20072
:102EA00008601EE00021C4F2422100200860FEF705
:102EB00077F90390FFE741F20000C4F202000068D6
:102EC000800700280CD5FFE7FEF76AF90399401A3E
:102ED000032804D3FFE703208DF81700EBE1EAE7AE
:102EE000FFE7FFE7FFE7049800780007002848D5D0
:102EF000FFE70498806918B3FFE740F28041C4F20D
:102F0000422101200860FEF74BF90390FFE741F2F0
:102F10002400C4F202000068800700280CD4FFE7F8
:102F2000FEF73EF90399401A032804D3FFE7032074
:102F30008DF81700BFE1EAE7012001F07FFE1FE0F6
:102F400040F28041C4F2422100200860FEF728F9D7
:102F50000390FFE741F22400C4F2020000688007FA
:102F600000280CD5FFE7FEF71BF90399401A032848
:102F700004D3FFE703208DF817009CE1EAE7FFE7A1
:102F8000FFE7049800784007002840F1D880FFE769
:102F900000208DF8070041F21C00C4F20200006816
:102FA000C000002813D4FFE7FFE741F21C00C4F281
:102FB0000200016841F080510160006800F080501B
:102FC00000900098FFE701208DF80700FFE747F227
:102FD0000000C4F200000068C005002822D4FFE70A
:102FE00047F20001C4F20001086840F480700860F4
:102FF000FEF7D6F80390FFE747F20000C4F20000A6
:103000000068C00500280CD4FFE7FEF7C9F8039953
:10301000401A652804D3FFE703208DF817004AE122
:10302000EAE7FFE7FFE70498C068012809D1FFE756
:1030300041F22001C4F20201086840F0010008607A
:1030400031E00498C06868B9FFE741F22001C4F29A
:103050000201086820F001000860086820F0040000
:1030600008601FE00498C06805280DD1FFE741F211
:103070002001C4F20201086840F0040008600868FA
:1030800040F0010008600CE041F22001C4F20201AE
:10309000086820F001000860086820F0040008605B
:1030A000FFE7FFE7FFE7FFE70498C068E0B1FFE74D
:1030B000FEF776F80390FFE741F22000C4F2020029
:1030C0000068800700280ED4FFE7FEF769F803992F
:1030D000401A41F28931884204D3FFE703208DF87A
:1030E0001700E8E0E8E71BE0FEF75AF80390FFE777
:1030F00041F22000C4F202000068800700280ED5CB
:10310000FFE7FEF74DF80399401A41F289318842F2
:1031100004D3FFE703208DF81700CCE0E8E7FFE7D2
:103120009DF80700012809D1FFE741F21C01C4F214
:103130000201086820F080500860FFE7FFE704986C
:10314000C069002800F0B380FFE741F20400C4F238
:103150000200006800F00C00082800F08280FFE701
:103160000498C06902285CD1FFE76021C4F24221C3
:1031700000200860FEF714F80390FFE741F200001A
:10318000C4F202000068800100280CD5FFE7FEF7BA
:1031900007F80399401A032804D3FFE703208DF8AA
:1031A000170088E0EAE70498006AB0F5803F0CD188
:1031B000FFE741F20401C4F20201086820F4003084
:1031C000049A926810430860FFE741F20401C4F2D8
:1031D0000201086820F47410049B1A6A5B6A1A439F
:1031E000104308606021C4F2422101200860FDF70D
:1031F000D7FF0390FFE741F20000C4F2020000682D
:10320000800100280CD4FFE7FDF7CAFF0399401A9C
:10321000032804D3FFE703208DF817004BE0EAE70B
:103220001EE06021C4F2422100200860FDF7B8FFD3
:103230000390FFE741F20000C4F202000068800141
:1032400000280CD5FFE7FDF7ABFF0399401A0328D0
:1032500004D3FFE703208DF817002CE0EAE7FFE72F
:1032600024E00498C069012804D1FFE701208DF80B
:10327000170020E041F20400C4F20200006802904E
:10328000029800F480300499096A884208D1FFE767
:10329000029800F470100499496A884204D0FFE74C
:1032A00001208DF8170006E0FFE7FFE7FFE70020A9
:1032B0008DF81700FFE79DF8170006B080BD0000ED
:1032C00080B582B00190019801F036FD02B080BD5A
:1032D00081B0009001B0704781B0009001B070479C
:1032E00085B003900291FFE7039890F83C00012815
:1032F00004D1FFE702208DF813005BE00399012061
:1033000081F83C00FFE7FFE70399022081F83D00C8
:1033100003980068406801900398006880680090F6
:10332000019820F07000019002980168019808430C
:10333000019001980399096848600398006842F673
:103340000041C4F20101884218D0FFE703980068E9
:10335000B0F1804F12D0FFE70398006840F20041BF
:10336000C4F20001884209D0FFE70398006840F6E4
:103370000001C4F2000188420ED1FFE7009820F05E
:1033800080000090029841680098084300900098DF
:10339000039909688860FFE70399012081F83D00DF
:1033A000FFE70399002081F83C00FFE700208DF83B
:1033B0001300FFE79DF8130005B0704780B582B099
:1033C0000090009820B9FFE701208DF807003FE04A
:1033D000009890F83D0040B9FFE70099002081F87F
:1033E0003C00009800F038F8FFE70099022081F8CF
:1033F0003D00009951F8040B01F020FD00990120D7
:1034000081F84600FFE70099012081F83E0000990D
:1034100081F83F00009981F84000009981F841004F
:10342000FFE7FFE70099012081F84200009981F849
:103430004300009981F84400009981F84500FFE7B6
:103440000099012081F83D0000208DF80700FFE77A
:103450009DF8070002B080BD80B584B0039003984A
:10346000006842F60041C4F20101884219D1FFE729
:10347000FFE741F21800C4F20200016841F4006164
:103480000160006800F4006002900298FFE71920D4
:10349000019000221146FDF71FFF0198FDF712FF72
:1034A000FFE704B080BD000083B00190019890F860
:1034B0003D00012804D0FFE701208DF80B0047E014
:1034C0000199022081F83D0001980168C86840F028
:1034D0000100C8600198006842F60041C4F2010191
:1034E000884218D0FFE701980068B0F1804F12D0F1
:1034F000FFE70198006840F20041C4F200018842F1
:1035000009D0FFE70198006840F60001C4F200010D
:10351000884212D1FFE701980068806800F0070038
:1035200000900098062807D0FFE701980168086816
:1035300040F001000860FFE706E0019801680868B4
:1035400040F001000860FFE700208DF80B00FFE766
:103550009DF80B0003B0704780B586B004900391CE
:1035600000208DF80B00FFE7049890F83C0001283C
:1035700004D1FFE702208DF81700ABE00499012089
:1035800081F83C00FFE7FFE70499022081F83D0045
:103590000498006880680190019820F077000190FD
:1035A000019820F47F40019001980499096888608F
:1035B000039800680090002872D0FFE70098102858
:1035C0006ED0FFE7009820286AD0FFE700983028E7
:1035D00066D0FFE70098402855D0FFE700985028B4
:1035E00037D0FFE70098602840D0FFE700987028A8
:1035F0000BD0FFE70098B0F5805F05D0FFE700989B
:10360000B0F5005F16D052E055E004980068039BC7
:103610005A689968DB6801F095FC04980068806836
:103620000190019840F07700019001980499096891
:10363000886040E004980068039B5A689968DB68DA
:1036400001F080FC04980168886840F4804088603C
:1036500031E004980068039A5168D26801F0A2FC36
:1036600004980068502101F087FC24E00498006869
:10367000039A5168D26801F0BDFC0498006860218B
:1036800001F07AFC17E004980068039A5168D26848
:1036900001F088FC04980068402101F06DFC0AE00C
:1036A000049800680399096801F066FC03E00120B2
:1036B0008DF80B00FFE70499012081F83D00FFE73A
:1036C0000499002081F83C00FFE79DF80B008DF87D
:1036D0001700FFE79DF8170006B080BD81B000908D
:1036E00001B0704780B584B0039003980068C0684B
:1036F000029003980068006901909DF8040080071B
:10370000002824D5FFE79DF80800800700281DD574
:10371000FFE7039801686FF0020008610399012038
:103720000877039800688069800720B1FFE7039855
:10373000FFF7D4FF06E0039800F0E2F8039800F0EA
:10374000E3F8FFE7039900200877FFE7FFE79DF81C
:1037500004004007002825D5FFE79DF80800400732
:1037600000281ED5FFE7039801686FF00400086188
:1037700003990220087703980068806910F4407F5D
:1037800004D0FFE70398FFF7A9FF06E0039800F0D5
:10379000B7F8039800F0B8F8FFE70399002008771E
:1037A000FFE7FFE79DF804000007002824D5FFE7A6
:1037B0009DF80800000700281DD5FFE70398016861
:1037C0006FF00800086103990420087703980068E7
:1037D000C069800720B1FFE70398FFF77FFF06E08D
:1037E000039800F08DF8039800F08EF8FFE7039936
:1037F00000200877FFE7FFE79DF80400C0060028D7
:1038000025D5FFE79DF80800C00600281ED5FFE774
:10381000039801686FF01000086103990820087789
:1038200003980068C06910F4407F04D0FFE7039854
:10383000FFF754FF06E0039800F062F8039800F0E9
:1038400063F8FFE7039900200877FFE7FFE79DF89B
:103850000400C00778B1FFE79DF80800C00748B131
:10386000FFE7039801686FF001000861039800F01A
:103870004FF8FFE7FFE79DF804000006002810D589
:10388000FFE79DF808000006002809D5FFE7039828
:1038900001686FF0800008610398FFF719FDFFE7EA
:1038A000FFE79DF804004006002810D5FFE79DF8CB
:1038B00008004006002809D5FFE7039801686FF06B
:1038C00040000861039800F069F8FFE7FFE79DF802
:1038D00004008006002810D5FFE79DF80800800648
:1038E000002809D5FFE7039801686FF02000086100
:1038F0000398FFF7F1FCFFE7FFE704B080BD00008D
:1039000081B0009001B0704781B0009001B0704765
:1039100080B582B00190019841F2F831C2F2000105
:10392000884239D1FFE7FCF7E7FE41F2C840C2F216
:1039300000000090C11C41F28840C2F20000042245
:1039400005F068FA009A40F27310C2F200000178A4
:10395000104600F8011F40F27211C2F2000109780E
:103960009170122105F024FA009940F61462C2F217
:1039700000021070137840F61560C2F20000037068
:1039800012780A700078C87441F24040C2F2000018
:10399000142200F005FBFFE702B080BD81B000906B
:1039A00001B0704782B00190ADF8021002B07047CC
:1039B00081B00090009841F24041C2F2000188427B
:1039C00007D1FFE741F2EC41C2F20001002008708C
:1039D000FFE701B07047000080B592B011901198D8
:1039E00000680068109011980068C0680F901198E6
:1039F000006840690E9000200D900C90109800F027
:103A00000F000D900D9888B9FFE79DF840008006E3
:103A100000280AD5FFE79DF83C008006002804D561
:103A2000FFE7119801F022FCE9E1FFE70D9800287B
:103A300000F0C280FFE79DF83800C00738B9FFE703
:103A4000BDF83C0010F4907F00F0B680FFE79DF8D1
:103A50004000C00758B1FFE79DF83D00C00730B1F6
:103A6000FFE71199486C40F001004864FFE79DF8BA
:103A70004000400700280BD5FFE79DF83800C0073D
:103A800030B1FFE71199486C40F002004864FFE74D
:103A90009DF84000800700280BD5FFE79DF838000F
:103AA000C00730B1FFE71199486C40F0040048644A
:103AB000FFE79DF840000007002811D5FFE79DF8BB
:103AC0003C008006002805D4FFE79DF83800C007B9
:103AD00030B1FFE71199486C40F008004864FFE7F7
:103AE0001198406C002866D0FFE79DF840008006E2
:103AF00000280AD5FFE79DF83C008006002804D581
:103B0000FFE7119801F0B2FBFFE7119800684069E8
:103B1000C0F380100C901198406C0007002804D46A
:103B2000FFE70C9800283ED0FFE7119801F024FB36
:103B3000119800684069400600282FD5FFE7FFE78D
:103B4000FFE71198006850E8050F20F040000B9047
:103B5000FFE70B991198026842E805100028F0D1A0
:103B6000FFE7FFE71198C06B98B1FFE71198C16BB1
:103B700045F24900C0F6000048631198C06BFCF79D
:103B80009DFE28B1FFE71198C06B416B8847FFE7A6
:103B900003E01198FFF70CFFFFE703E01198FFF730
:103BA00007FFFFE706E01198FFF702FF11990020D9
:103BB0004864FFE7FFE722E11198006B012840F01D
:103BC000FE80FFE79DF84000C006002840F1F78026
:103BD000FFE79DF83C00C006002840F1F080FFE7B9
:103BE000FFE700200A901198006800680A90119879
:103BF000006840680A900A98FFE7119800684069D9
:103C00004006002840F18180FFE71198C06B0068F2
:103C10004068ADF82600BDF82600002874D0FFE704
:103C2000BDF826001199898D88426DDAFFE7BDF84D
:103C300026001199C8851198C06B8069202858D03A
:103C4000FFE7FFE7FFE71198006850E8030F20F453
:103C500080700890FFE708991198026842E8031005
:103C60000028F0D1FFE7FFE7FFE7FFE711980068C2
:103C700050E8050F20F001000790FFE70799119821
:103C8000026842E805100028F0D1FFE7FFE7FFE7F0
:103C9000FFE71198006850E8050F20F040000690FB
:103CA000FFE706991198026842E805100028F0D154
:103CB000FFE7FFE71199202081F8420011990020C9
:103CC0000863FFE7FFE71198006850E8030F20F052
:103CD00010000590FFE705991198026842E803106B
:103CE0000028F0D1FFE7FFE71198C06BFCF7A8FDB3
:103CF000FFE71199022048631198818DC28D891ABE
:103D000089B2FFF74FFEFFE779E01199888DC98DE1
:103D1000401AADF812001198C08D00284ED0FFE770
:103D2000BDF81200002849D0FFE7FFE7FFE7119830
:103D3000006850E8030F20F490700390FFE70399A8
:103D40001198026842E803100028F0D1FFE7FFE76E
:103D5000FFE7FFE71198006850E8050F20F0010029
:103D60000290FFE702991198026842E805100028C6
:103D7000F0D1FFE7FFE71199202081F84200119967
:103D800000200863FFE7FFE71198006850E8030F81
:103D900020F010000190FFE701991198026842E8B5
:103DA00003100028F0D1FFE7FFE7119902204863D4
:103DB0001198BDF81210FFF7F5FDFFE71FE09DF821
:103DC0004000000600280AD5FFE79DF83C000006E9
:103DD000002804D5FFE7119801F05CFB0FE09DF887
:103DE0004000400600280AD5FFE79DF83C00400649
:103DF000002804D5FFE7119801F008FAFFE712B098
:103E000080BD000080B582B00090009820B9FFE727
:103E100001208DF8070040E00098806908B1FFE7B5
:103E200000E0FFE7009890F8410040B9FFE70099F3
:103E3000002081F84000009800F034F8FFE7009976
:103E4000242081F8410000980168C86820F40050DF
:103E5000C860009801F0C0FA00980168086920F471
:103E60009040086100980168486920F02A00486184
:103E700000980168C86840F40050C86000990020AC
:103E80004864009A202182F84110009A82F842107A
:103E9000009948638DF80700FFE79DF8070002B01E
:103EA00080BD000080B58CB00B9000200A90099076
:103EB000089007900B98006843F60001C4F20101D6
:103EC000884267D1FFE7FFE741F21800C4F2020021
:103ED000016841F480410160006800F48040069070
:103EE0000698FFE7FFE741F21800C4F202000168FC
:103EF00041F004010160006800F00400059005989D
:103F0000FFE74FF4007007900220089003200A900A
:103F100040F60000C4F20100019007A90291FCF7ED
:103F20007FFF019802994FF480620792002203926A
:103F300008920992FCF774FF039941F2DC00C2F287
:103F4000000004904422C4F2020202601022426087
:103F500081608022C260016141618161C161FCF7C1
:103F60007FFE18B1FFE7FCF7BFFBFFE7FFE70B9809
:103F700041F2DC01C2F2000181630B984862FFE765
:103F80002520009000221146FDF7A6F90098FDF7C4
:103F900099F9FFE70CB080BD81B0009001B0704787
:103FA00080B586B004900391ADF80A20049890F88B
:103FB000410020285DD1FFE7039820B1FFE7BDF85D
:103FC0000A0020B9FFE701208DF8170055E003989B
:103FD00004990862BDF80A0004998884BDF80A00B3
:103FE0000499C884049900204864049A212182F825
:103FF000411004998A6B45F2E501C0F60001916217
:1040000004998A6B45F26111C0F60001D1620499EE
:104010008A6B45F26901C0F6000111630499896B4E
:10402000486303A8019004980268806B01990968AD
:104030000432BDF80A30FCF76BFE049801686FF09B
:1040400040000860FFE7FFE70498006850E8050FAC
:1040500040F080000090FFE700990498026842E871
:1040600005100028F0D1FFE7FFE700208DF81700CA
:1040700003E002208DF81700FFE79DF8170006B057
:1040800080BD000081B00090009841F24041C2F232
:104090000001884207D1FFE741F2EC41C2F2000182
:1040A00000200870FFE701B07047000081B0009069
:1040B00001B07047FFE7FEE783B0029001918DF8F1
:1040C000032000208DF802008DF80200FFE79DF824
:1040D00002009DF80310884229DAFFE70298000FDA
:1040E000092809D8FFE70298000F303001999DF8A0
:1040F000022001F8120009E00299372000EB11704C
:1041000001999DF8022001F81200FFE702980001D2
:10411000029001989DF8021000EB410100204870C8
:10412000FFE79DF8020001308DF80200CFE703B0F1
:104130007047000080B58AB00890089849F6901141
:10414000C0F60001096805F04FF838B9FFE749F6F5
:10415000AC10C0F600000068099069E0089849F6C4
:104160009011C0F60001896905F053F838B9FFE7EE
:1041700049F6AC10C0F600008069099058E00020B4
:104180008DF81F00FFE79DF81F00052849DCFFE7B9
:1041900008989DF81F2049F69011C0F6000101EB28
:1041A0008201496805F027F8A0BBFFE708989DF851
:1041B0001F2049F69011C0F6000101EB8203029323
:1041C00051F82210019105F0CFFA019902460298A8
:1041D0000392406805F0C8FA0146039805F02CF8F0
:1041E00006909DF81F2049F6AC11C0F6000101EBC6
:1041F000820051F822100591069A0492406805F059
:10420000B3FA0146049805F0A9F9059904F076FF80
:1042100009900DE0FFE79DF81F0001308DF81F00A9
:10422000B1E749F6AC10C0F6000080690990FFE7DD
:1042300009980AB080BD000080B582B0FFE741F266
:104240001400C4F20200016841F00101016000683D
:1042500000F0010001900198FFE70E20009000227D
:104260001146FDF739F80098FDF72CF802B080BD33
:1042700080B58EB000200D900C900B900A90FFE757
:1042800041F21800C4F20200016841F0200101600F
:10429000006800F0200009900998FFE7FFE741F26D
:1042A0001800C4F20200016841F0040101600068D6
:1042B00000F0040008900898FFE7FFE741F21800BB
:1042C000C4F20200016841F008010160006800F0DA
:1042D000080007900798FFE740F60000C4F20100CD
:1042E0000190F82100220292FCF742FF029A40F668
:1042F0000040C4F20100059040F20741FCF738FF8E
:104300000198029904220A920B910C910AA9069134
:10431000FCF786FD0198029B0699E8220A92012289
:1043200004920B920C930D92FCF77AFD0198049A7B
:10433000069910230A930B920C920D92FCF770FDD4
:10434000029A049B059806990A930B930C920222F9
:1043500003920D92FCF764FD039B049A059806995D
:1043600040F2064CCDF828C00B920C930D92FCF74E
:1043700057FD0EB080BD000080B588B000210091CF
:1043800007910691059104910391029141F2F83051
:10439000C2F20000019042F60042C4F20102026043
:1043A00047224260816040F2CF72C2600161416188
:1043B0008161FFF703F818B1FFE7FCF795F9FFE714
:1043C0004FF48050049041F2F830C2F2000004A98A
:1043D000FFF7C2F818B1FFE7FCF786F9FFE7002006
:1043E0000290039041F2F830C2F2000002A9FEF7F9
:1043F00077FF18B1FFE7FCF777F9FFE708B080BD5A
:1044000080B582B041F24040C2F20000019043F614
:104410000001C4F2010101604FF4E131416000216B
:104420008160C16001610C2242618161C161FFF75D
:10443000E9FC18B1FFE7FCF757F9FFE702B080BDD0
:1044400080B540F61860C2F2000040F20001C2F2EE
:104450000001002201F0E0FE18B1FFE7FCF744F98B
:10446000FFE740F61860C2F2000040F22001C2F2FD
:10447000000102F0A7FA18B1FFE7FCF735F9FFE7F2
:1044800040F61860C2F2000040F24411C2F200018E
:1044900001F008FA18B1FFE7FCF726F9FFE740F64C
:1044A0001860C2F2000002F0C3FB18B1FFE7FCF78E
:1044B0001BF9FFE780BD0000FFE7FEE7FFE7FEE72F
:1044C00088B0079006910592079800F007000490C5
:1044D0000498C0F10700052803D3FFE704200190EA
:1044E00004E00498C0F107000190FFE701980390F1
:1044F00004980430062803D8FFE70020009003E06A
:10450000049803380090FFE70098029006980399FA
:10451000012202FA01F101390840029B98400599F5
:104520009A40013A1140084308B0704780B596B0F0
:104530001590FFE715980068B0F8440000040028C3
:1045400040F17783FFE715980068B0F84400ADF8B4
:104550004C00BDF84C0000F00F008DF847009DF8AE
:104560004700002840F05681FFE7BDF84C00C00628
:10457000002843D4FFE7FFE715980068008848F655
:104580000F710840ADF84400BDF8440040F400400D
:10459000159909680880FFE7159810301490159850
:1045A0000068B0F8500014990A7800EBC202159820
:1045B000006800EB4200B0F804046FF39F20C8616C
:1045C00014994869CA691044486115980021FCF79C
:1045D000F1FE1598407B80B1FFE71498806960B9BF
:1045E000FFE71598407B40F0800015990968A1F815
:1045F0004C00159900204873FFE70AE1159800F573
:10460000A8701490159800680088ADF84A00BDF8AD
:104610004A00000500282FD5FFE715980068B0F87C
:10462000500014990A7800EBC2021598006800EB5C
:104630004200B0F80C046FF39F20C8611599086818
:1046400001F52671149BDA889B8B04F0AFFAFFE723
:1046500015980068008840F68F710840ADF8420058
:10466000BDF8420040F08000159909680880FFE716
:104670001598FDF7FDFFCBE0BDF84A0000040028C7
:1046800040F1C580FFE7FFE715980068008840F615
:104690008F710840ADF84000BDF8400040F0800048
:1046A000159909680880FFE715980068B0F8500070
:1046B00014990A7800EBC2021598006800EB4200DA
:1046C000B0F80C046FF39F20C8611498C069B0B1B2
:1046D000FFE71498406990B1FFE715980068149BB4
:1046E0005969DA889B8B04F061FA14994869CA69A0
:1046F0001044486115980021FCF770FEFFE71598FB
:1047000000680088ADF84A00BDF84A00000500289E
:104710007CD4FFE7BDF84A0000F44050B0F5405F9C
:1047200074D0FFE7FFE7159800680F9015980068B0
:10473000B0F850100F9808440F900F9800F20C40FA
:104740000E90FFE70E9908886FF39F200880149859
:1047500000693F2818D3FFE7FFE714980069400974
:104760000D901498007CC00620B9FFE70D98013821
:104770000D90FFE70D9A0E99088840EA822040F4D8
:1047800000400880FFE720E01498006930B9FFE797
:104790000E99088840F40040088015E0FFE714985F
:1047A000006940080D901498007CC00720B1FFE715
:1047B0000D9801300D90FFE70D9A0E99088840EA98
:1047C00082200880FFE7FFE7FFE7FFE7FFE7FFE75B
:1047D0001598006800884BF68F710840ADF83200DC
:1047E000BDF8320080F48050ADF83200BDF83200E0
:1047F00080F40050ADF83200BDF8320048F280017C
:104800000843159909680880FFE7FFE7FFE7FFE71E
:10481000FFE70CE2159800689DF8471030F821007A
:10482000ADF84A00BDF84A000004002840F1E180DC
:10483000FFE7FFE7159800689DF8471030F8210062
:1048400040F68F710840ADF83000BDF8300040F000
:104850008000159909689DF8472021F82200FFE79C
:1048600015989DF8471001EB810100EBC10000F5A0
:10487000A87014901498007B08BBFFE71598006897
:10488000B0F850001499097800EBC1011598006840
:1048900000EB4100B0F80C046FF39F20ADF84E0020
:1048A000BDF84E0050B1FFE715980068149A5169A1
:1048B000D288BDF84E3004F079F9FFE775E014981E
:1048C000C078022809D1FFE715981499BDF84A204D
:1048D000FCF750FEADF84E0066E0FFE7FFE71598E5
:1048E00000681499097830F8210048F68F71084063
:1048F000ADF82E00BDF82E0048F2C001084315990E
:104900000968149A127821F82200FFE7FFE715984A
:1049100000681499097830F821004004002821D556
:10492000FFE715980068B0F850001499097800EB7B
:10493000C1011598006800EB4100B0F804046FF362
:104940009F20ADF84E00BDF84E0050B1FFE715981E
:104950000068149A51691289BDF84E3004F026F9A6
:10496000FFE720E015980068B0F850001499097826
:1049700000EBC1011598006800EB4100B0F80C0491
:104980006FF39F20ADF84E00BDF84E0050B1FFE729
:1049900015980068149A51695289BDF84E3004F098
:1049A00005F9FFE7FFE7FFE7FFE7BDF84E201499A1
:1049B000C8691044C861BDF84E2014994869104474
:1049C00048611498806938B1FFE7BDF84E0014992A
:1049D0000969884206D2FFE7159814990978FCF70F
:1049E000FDFC05E015980068149903F0B1F9FFE7A4
:1049F000FFE7BDF84A000006002840F11781FFE7F5
:104A000015989DF8471001EB810100EBC1001030B3
:104A10001490FFE7159800689DF8471030F82100C2
:104A200048F60F710840ADF82C00BDF82C0040F49A
:104A30000040159909689DF8472021F82200FFE7FA
:104A40001498C078012840F0A180FFE71499002055
:104A500088611498007B002800F09280FFE7BDF881
:104A60004A004006002846D5FFE7FFE71498407843
:104A700008BBFFE7FFE7159800680A9015980068E3
:104A8000B0F850100A9808440A900A9814990978C6
:104A900000EB011000F204400990FFE70999088833
:104AA0006FF39F2008800999088840F4004008802F
:104AB000FFE7FFE71DE014984078012818D1FFE7D1
:104AC000FFE715980068079015980068B0F8501037
:104AD00007980844079007981499097800EB01108B
:104AE00000F204400690069900200880FFE7FFE7E7
:104AF000FFE7FFE743E0FFE715980068059014988B
:104B0000407808BBFFE7FFE7159800680390159809
:104B10000068B0F850100398084403900398149963
:104B2000097800EB011000F20C400290FFE70299B7
:104B300008886FF39F2008800299088840F400409D
:104B40000880FFE7FFE718E014984078012813D1A8
:104B5000FFE715980068B0F85010059808440590D4
:104B600005981499097800EB011000F20C400490AC
:104B7000049900200880FFE7FFE7FFE7FFE7FFE772
:104B8000159814990978FCF715FC4EE0BDF84A0019
:104B9000C005002841D4FFE715980068B0F8500020
:104BA0001499097800EBC1011598006800EB4100E9
:104BB000B0F804046FF39F20ADF8480014988069A2
:104BC000BDF84810884207D9FFE7BDF8482014997E
:104BD0008869801A886103E0149900208861FFE7E2
:104BE0001498806930B9FFE7159814990978FCF793
:104BF000E1FB11E0BDF84820149948691044486170
:104C0000BDF848201499C8691044C8611598006817
:104C1000149903F09DF8FFE706E015981499BDF884
:104C20004A20FCF7A5FDFFE7FFE7FFE7FFE7FFF7F7
:104C300081BC002016B080BD7047000082B001909A
:104C4000019840F21C01C2F200010968C90844F64B
:104C5000D352C1F26202A1FB0221890948430090AC
:104C6000FFE700BFFFE70098411E00910028F8D140
:104C7000FFE702B0704700007047000080B586B0C3
:104C8000059000208DF81300FFE79DF8130007281A
:104C90004FDCFFE700220392ADF8102040F6000041
:104CA000C4F201001021FCF763FA03988DF812009A
:104CB000FFE79DF812000F2825DCFFE740F6000013
:104CC000C4F201000290202101910022FCF750FA69
:104CD00002980421FCF734FA0199024602989DF8E3
:104CE0001230C3F10F039A40BDF810301A44ADF8EA
:104CF00010200122FCF73CFAFFE79DF8120001307A
:104D00008DF81200D5E740F60000C4F20100102132
:104D10000122FCF72DFABDF8100005999DF813202B
:104D200021F81200FFE79DF8130001308DF8130001
:104D3000ABE706B080BD000080B582B0009000985F
:104D40000138B0F1807F03D3FFE70120019019E023
:104D5000009801384EF21401CEF2000108604FF0C5
:104D6000FF300F2103F0E4FF4EF21801CEF20001F4
:104D7000002008604EF21002CEF2000207211160FE
:104D80000190FFE7019802B080BD000080B5FCF7FC
:104D90000DFA80BD80B596B00CA801902821FBF7D4
:104DA00049FA0198002102910B910A910991089109
:104DB0000791069105910491039101220C924FF401
:104DC00080310D914FF400330E9310920222139212
:104DD00014914FF4E0111591FDF734FF18B1FFE77E
:104DE000FBF782FCFFE70F200790022108910020CB
:104DF00009904FF480620A920B9007A8FDF76EFDB0
:104E000018B1FFE7FBF770FCFFE7102003900020CC
:104E1000069003A8FDF77EFC18B1FFE7FBF764FCE2
:104E2000FFE716B080BD00007047000080B541F27A
:104E3000F830C2F20000FEF755FC80BD83B002904E
:104E40000191029800680090029842F60041C4F275
:104E50000101884215D0FFE70298B0F1804F10D0D1
:104E6000FFE7029840F20041C4F20001884208D0F6
:104E7000FFE7029840F60001C4F2000188420AD11F
:104E8000FFE7009820F070000090019841680098BA
:104E900008430090FFE7029842F60041C4F2010186
:104EA000884215D0FFE70298B0F1804F10D0FFE79D
:104EB000029840F20041C4F20001884208D0FFE7A6
:104EC000029840F60001C4F2000188420AD1FFE7CF
:104ED000009820F4407000900198C1680098084341
:104EE0000090FFE7009820F080000199496908438D
:104EF0000090009802990860019880680299C86241
:104F00000198006802998862029842F60041C4F252
:104F10000101884205D1FFE7019800690299086301
:104F2000FFE702990120486102980069C00730B18B
:104F3000FFE70299086920F001000861FFE703B06C
:104F40007047000085B00490039102920193049889
:104F500080680090009820F47F40009003980299A8
:104F6000019A41EA02210143009808430090009809
:104F70000499886005B0704783B00290019102984F
:104F800080680090009820F07000009001980099CF
:104F9000084340F00700009000980299886003B031
:104FA0007047000085B00490039102920498006A53
:104FB00000900499086A20F0010008620498806952
:104FC0000190019820F0F00001900299019840EAC8
:104FD00001100190009820F00A00009003990098B9
:104FE0000843009001980499886100980499086228
:104FF00005B0704785B00490039102920498006A4E
:1050000000900499086A20F01000086204988069F2
:105010000190019820F4704001900299019840EAB3
:1050200001300190009820F0A000009003990098B2
:1050300040EA011000900198049988610098049951
:10504000086205B07047000080B582B001900198F9
:10505000406A009000990020C8850099C884009893
:10506000FEF7A6FC02B080BD80B584B0039000209E
:1050700002900398406A0190019800684069C0B2AC
:10508000C0090290019890F8410021280AD1FFE759
:10509000029838B1FFE701990020C884019800F018
:1050A000C9F8FFE7019800684069C0F380100290DA
:1050B000019890F8420022280AD1FFE7029838B1FF
:1050C000FFE701990020C885019800F055F8FFE737
:1050D0000199486C40F0100048640198FEF768FCA4
:1050E00004B080BD80B584B003900398406A0290FC
:1050F000039800680068800600282AD4FFE7029918
:105100000020C884FFE7FFE70298006850E8050F19
:1051100020F080000190FFE701990298026842E8C0
:1051200005100028F0D1FFE7FFE7FFE7FFE702984F
:10513000006850E8030F40F040000090FFE700993E
:105140000298026842E803100028F0D1FFE7FFE769
:1051500003E00298FEF796FFFFE704B080BD000071
:1051600080B582B001900198406A00900098FEF7E7
:105170009DFF02B080BD000084B00390FFE7FFE711
:105180000398006850E8030F20F490700290FFE746
:1051900002990398026842E803100028F0D1FFE763
:1051A000FFE7FFE7FFE70398006850E8050F20F0EE
:1051B00001000190FFE701990398026842E8051099
:1051C0000028F0D1FFE7FFE70398006B012814D116
:1051D000FFE7FFE7FFE70398006850E8030F20F0C0
:1051E00010000090FFE700990398026842E803105E
:1051F0000028F0D1FFE7FFE7FFE70399202081F8BF
:10520000420003990020086304B0704780B582B063
:10521000019001980168C86820F04000C8600199B9
:10522000202081F841000198FEF72CFF002002B0F9
:1052300080BD000082B00190FFE7FFE701980068A1
:1052400050E8030F20F0C0000090FFE7009901989C
:10525000026842E803100028F0D1FFE7FFE7019958
:10526000202081F8410002B07047000080B586B070
:105270000490049890F84200222840F0A480FFE7B0
:1052800004988068B0F5805F15D1FFE70498006945
:1052900088B9FFE7002003900498806A0290049880
:1052A000006840686FF35F20029908800499886A5B
:1052B0000230886225E00498806A03900020029002
:1052C00004988068B0F5805F08D0FFE70498806894
:1052D00050B9FFE70498006930B9FFE70498006807
:1052E00040680399087007E004980068406800F07F
:1052F0007F0003990870FFE70499886A013088628B
:10530000FFE70499C88D0138C8850004002856D1EC
:10531000FFE704980168C86820F02000C86004987E
:105320000168C86820F48070C86004980168486902
:1053300020F0010048610499202081F8420004997E
:10534000002048630498006B012830D1FFE70499DE
:1053500000200863FFE7FFE70498006850E8030FA8
:1053600020F010000190FFE701990498026842E8DC
:1053700003100028F0D1FFE7FFE7049800680068F9
:10538000C00600280ED5FFE7FFE700200090049834
:1053900000680068009004980068406800900098D9
:1053A000FFE7FFE70498818DFEF7FCFA03E004981D
:1053B000FEF7F2FDFFE700208DF8170007E0002060
:1053C0008DF8170003E002208DF81700FFE79DF825
:1053D000170006B080BD000080B584B0039003982C
:1053E0000068006920F44050039A1168D2681043A5
:1053F0000861039988680A69496910430843029063
:1054000003980068C06841F20C6188430299084320
:1054100003990968C86003980068406920F44070E7
:10542000039A11689269104348610398006843F633
:105430000001C4F20101884204D1FFE7FDF792FBAD
:10544000019003E0FDF77CFB0190FFE70198192133
:105450004843039A116852689200B0FBF2FC48F28C
:105460001F52C5F2EB12ACFB02304309642003FB70
:1054700010CC322000EB0C10A0FB0202F02000EA5E
:10548000521000EB0310C2F343121044886004B0C2
:1054900080BD000083B00190019890F84100212860
:1054A0003AD1FFE701988068B0F5805F13D1FFE73C
:1054B0000198006978B9FFE70198006A00900098A8
:1054C00000886FF35F200199096848600199086AB4
:1054D0000230086208E0019A106A411C11620078EB
:1054E000019909684860FFE70199C88C0138C884B0
:1054F000000468B9FFE701980168C86820F08000DF
:10550000C86001980168C86840F04000C860FFE7C3
:1055100000208DF80B0003E002208DF80B00FFE760
:105520009DF80B0003B0704780B541F24040C2F2D5
:105530000000FEF751FA80BD80B586B004908DF86A
:105540000F100498D0F8B80202900498D0F8C00266
:1055500001900498D0F8B802A8B3FFE704989DF82A
:105560000F1001EB810100EB8100C06910B3FFE770
:1055700004989DF80F1001EB810100EB8100C269D6
:10558000019800EBC100016AB2FBF1F000FB1120B1
:1055900080B9FFE704989DF80F1001EB810100EB43
:1055A00081000023C36104989DF80F101A4601F092
:1055B000C3F904E002990020C1F81402FFE70020BB
:1055C0008DF8170003E002208DF81700FFE79DF823
:1055D000170006B080BD000080B584B002908DF841
:1055E00007100298D0F8B802009002989DF80710B2
:1055F00000F0B4FF0099C1F80C020298D0F8B8028C
:1056000070B1FFE70298D0F8BC02C2680099D1F8E7
:10561000040201F50371904700208DF80F0003E0AC
:1056200002208DF80F00FFE79DF80F0004B080BD49
:1056300080B584B003908DF80B10002001908DF898
:105640000A000398812100F037FE01980399C8628F
:105650000398012100F030FE01980399C1F86C0114
:105660000398822100F028FE0198039908640398AA
:10567000D0F8B80278B1FFE70398D0F8BC024068D0
:1056800080470398D0F8B80201F022FD039900206A
:10569000C1F8B802FFE79DF80A0004B080BD000021
:1056A00080B582B001900198D0F8B80200900198BE
:1056B000D0F8BC02A8B1FFE7009890F80002FF28DC
:1056C0000FD0FFE70198D0F8BC028368009991F8E9
:1056D000000291F8012298470099FF2081F800020A
:1056E000FFE7002002B080BD81B0009000990A2041
:1056F000088040F2E000C2F2000001B070470000F4
:1057000081B0009000994320088040F25800C2F216
:10571000000001B07047000081B000900099432064
:10572000088040F29C00C2F2000001B07047000007
:1057300081B0009000994320088040F2EC00C2F252
:10574000000001B07047000080B58AB009908DF864
:10575000231000208DF822000998007CB8B9FFE7DB
:1057600009988121022204924FF40073059300F0FE
:1057700081FF049A059B099801210691C16209984D
:1057800000F078FF06980999C1F86C0115E00998B6
:105790008121022201924023029300F06BFF019AC3
:1057A000029B099801210391C162099800F062FFF0
:1057B00003980999C1F86C01FFE709988221032237
:1057C000082300F057FF0999012008644FF407707F
:1057D00001F082FC0999C1F8B8020998D0F8B80222
:1057E00020B9FFE701208DF8220027E00998D0F8C2
:1057F000B80207900998D0F8BC0200688047079962
:105800000020C1F814020799C1F818020998007C19
:1058100050B9FFE709980799D1F8042201214FF404
:10582000007300F04DFF08E009980799D1F80422B1
:105830000121402300F044FFFFE7FFE79DF822002D
:105840000AB080BD80B584B002900298D0F8B8024A
:1058500001900298D0F8B802D8B1FFE70298007C16
:1058600050B9FFE702980199D1F8042201214FF4C1
:10587000007300F025FF08E002980199D1F8042296
:105880000121402300F01CFFFFE700208DF80F00EE
:1058900003E002208DF80F00FFE79DF80F0004B031
:1058A00080BD000083B00290019102208DF80300BA
:1058B000019840B1FFE701980299C1F8BC020020AD
:1058C0008DF80300FFE79DF8030003B07047000068
:1058D00083B0029001910298D0F8B802009001982C
:1058E0000099C1F80402002003B0704784B003900F
:1058F0000291ADF806200398D0F8B8020090029803
:105900000099C1F80802BDF806000099C1F810021C
:10591000002004B07047000080B588B00790069161
:105920000798D0F8B802059000208DF81300ADF864
:1059300010008DF80F000698007800F06000014616
:105940000291D8B3FFE70298202840F08880FFE753
:105950000698C08840B3FFE7069800780006002844
:1059600010D5FFE70798D0F8BC028368069A5078F4
:105970000599D288984707980599069AD28800F029
:105980000FF910E006984078059981F80002069812
:105990008079059981F8010207980599069AD288BD
:1059A00000F0CCF8FFE708E00798D0F8BC02836865
:1059B0000699487800229847FFE758E00698407813
:1059C0000146019140B1FFE701980A2819D0FFE78D
:1059D00001980B282BD039E0079890F89C020328F7
:1059E00006D1FFE7079804A9022200F0D9F807E0E2
:1059F0000798069900F094F802208DF80F00FFE751
:105A00002CE0079890F89C02032807D1FFE707983D
:105A10000DF11301012200F0C3F807E00798069981
:105A200000F07EF802208DF80F00FFE716E00798DF
:105A300090F89C02032808D0FFE70798069900F029
:105A40006FF802208DF80F00FFE707E0079806992E
:105A500000F066F802208DF80F00FFE707E00798D6
:105A6000069900F05DF802208DF80F00FFE79DF821
:105A70000F0008B080BD000080B582B001908DF8A5
:105A800003100198D0F8B4124A689DF803109047AB
:105A9000002002B080BD000080B582B0019000916E
:105AA000019890F89C02013802280ED8FFE7009870
:105AB0004088012808D1FFE701990020C1F8A4021D
:105AC000019800F08BF8FFE704E00198009900F0DE
:105AD00027F8FFE702B080BD80B584B00390029143
